{
  "transactions": [
    {
      "hash": "0x8f3c4ad8aa83394f24e7cfef5b1ec4ecaea2a67b524c6648e39a04dcd4af2e64",
      "transactionType": "CALL",
      "contractName": null,
      "contractAddress": "0x2cc51464f8f4b245a99c403aa494d6bd2a08da8b",
      "function": "approve(address,uint256)",
      "arguments": [
        "0x54F5BDAcfD4834202E6A6e062601E277013e9e33",
        "1000000000000000000000"
      ],
      "transaction": {
        "from": "0xbbe4c705bda4e355822b067665dd0c7e83458595",
        "to": "0x2cc51464f8f4b245a99c403aa494d6bd2a08da8b",
        "gas": "0xa957",
        "value": "0x0",
        "input": "0x095ea7b300000000000000000000000054f5bdacfd4834202e6a6e062601e277013e9e3300000000000000000000000000000000000000000000003635c9adc5dea00000",
        "nonce": "0xbc",
        "chainId": "0x2105"
      },
      "additionalContracts": [],
      "isFixedGasLimit": false
    }
  ],
  "receipts": [
    {
      "status": "0x1",
      "cumulativeGasUsed": "0x84d183",
      "logs": [
        {
          "address": "0x2cc51464f8f4b245a99c403aa494d6bd2a08da8b",
          "topics": [
            "0x8c5be1e5ebec7d5bd14f71427d1e84f3dd0314c0f7b2291e5b200ac8c7c3b925",
            "0x000000000000000000000000bbe4c705bda4e355822b067665dd0c7e83458595",
            "0x00000000000000000000000054f5bdacfd4834202e6a6e062601e277013e9e33"
          ],
          "data": "0x00000000000000000000000000000000000000000000003635c9adc5dea00000",
          "blockHash": "0xdfaa6767466eed659fc2f12c36872c553eec54aecd6c6c058836cdcbd87f358a",
          "blockNumber": "0x22c0b6f",
          "blockTimestamp": "0x68e273c1",
          "transactionHash": "0x8f3c4ad8aa83394f24e7cfef5b1ec4ecaea2a67b524c6648e39a04dcd4af2e64",
          "transactionIndex": "0x32",
          "logIndex": "0xd1",
          "removed": false
        }
      ],
      "logsBloom": "0x00000000000000000000000000000000000000000000000000000000000000000000000000000000000000000000000040000000000000000000000000200000000000004000000000000000000000000000000000000000000000000000000000000000000000000000000000000000000000000010000000000100000000000000000000000100000000000000000000000000000000000000000000000000020000040000000000000000000000000080000000000000000000000000000000000000100000000000000000000000010000000000000000000000000000000010000000000000000000000000000000000000000000000000000000000000",
      "type": "0x2",
      "transactionHash": "0x8f3c4ad8aa83394f24e7cfef5b1ec4ecaea2a67b524c6648e39a04dcd4af2e64",
      "transactionIndex": "0x32",
      "blockHash": "0xdfaa6767466eed659fc2f12c36872c553eec54aecd6c6c058836cdcbd87f358a",
      "blockNumber": "0x22c0b6f",
      "gasUsed": "0x73ca",
      "effectiveGasPrice": "0x3fb534",
      "from": "0xbbe4c705bda4e355822b067665dd0c7e83458595",
      "to": "0x2cc51464f8f4b245a99c403aa494d6bd2a08da8b",
      "contractAddress": null,
      "l1BaseFeeScalar": "0x8dd",
      "l1BlobBaseFee": "0x2cbca",
      "l1BlobBaseFeeScalar": "0x101c12",
      "l1Fee": "0x1ba7aee6",
      "l1GasPrice": "0x74ccc77",
      "l1GasUsed": "0x640"
    }
  ],
  "libraries": [],
  "pending": [],
  "returns": {},
  "timestamp": 1759671233581,
  "chain": 8453,
  "commit": "3d14419"
}