{
  "transactions": [
    {
      "hash": "0x9a364a10fc99e2d8e74620c557342d7669442fb21cb6a794c1c78bd06424445a",
      "transactionType": "CALL",
      "contractName": null,
      "contractAddress": "0xb5bf6682f2820097be86539b931bc78e2177fddc",
      "function": "transfer(address,uint256)",
      "arguments": [
        "0x54F5BDAcfD4834202E6A6e062601E277013e9e33",
        "1000000000000000000000"
      ],
      "transaction": {
        "from": "0xbbe4c705bda4e355822b067665dd0c7e83458595",
        "to": "0xb5bf6682f2820097be86539b931bc78e2177fddc",
        "gas": "0x13787",
        "value": "0x0",
        "input": "0xa9059cbb00000000000000000000000054f5bdacfd4834202e6a6e062601e277013e9e3300000000000000000000000000000000000000000000003635c9adc5dea00000",
        "nonce": "0x26",
        "chainId": "0x14a34"
      },
      "additionalContracts": [],
      "isFixedGasLimit": false
    }
  ],
  "receipts": [
    {
      "status": "0x1",
      "cumulativeGasUsed": "0x263809",
      "logs": [
        {
          "address": "0xb5bf6682f2820097be86539b931bc78e2177fddc",
          "topics": [
            "0xddf252ad1be2c89b69c2b068fc378daa952ba7f163c4a11628f55a4df523b3ef",
            "0x000000000000000000000000bbe4c705bda4e355822b067665dd0c7e83458595",
            "0x00000000000000000000000054f5bdacfd4834202e6a6e062601e277013e9e33"
          ],
          "data": "0x00000000000000000000000000000000000000000000003635c9adc5dea00000",
          "blockHash": "0xc4d6ae7bc73dca5e6d2d59f5f76f17fdc3d889733d8d402e550e875e2b9fcfda",
          "blockNumber": "0x1e78cca",
          "blockTimestamp": "0x68e27874",
          "transactionHash": "0x9a364a10fc99e2d8e74620c557342d7669442fb21cb6a794c1c78bd06424445a",
          "transactionIndex": "0x7",
          "logIndex": "0x5c",
          "removed": false
        }
      ],
      "logsBloom": "0x00000000000000000000000000000000000000000000000000000000000000000000000000000000000000000000000040000000000000000000000000000000000000004000000000000008000000000000000000000000000000000000000000000000000000020000000000000000000000000000000000000110000000000000000000000000000000000000000008000000000000000000000000000000002000040000000000000000000000000000000000000000000000000000000000000002100000000000000000000000010000000000000000000000000000000000000000000000000000000000000000000000000000000000000000000000",
      "type": "0x2",
      "transactionHash": "0x9a364a10fc99e2d8e74620c557342d7669442fb21cb6a794c1c78bd06424445a",
      "transactionIndex": "0x7",
      "blockHash": "0xc4d6ae7bc73dca5e6d2d59f5f76f17fdc3d889733d8d402e550e875e2b9fcfda",
      "blockNumber": "0x1e78cca",
      "gasUsed": "0xd503",
      "effectiveGasPrice": "0x8f018d8",
      "from": "0xbbe4c705bda4e355822b067665dd0c7e83458595",
      "to": "0xb5bf6682f2820097be86539b931bc78e2177fddc",
      "contractAddress": null,
      "l1BaseFeeScalar": "0x44d",
      "l1BlobBaseFee": "0x1",
      "l1BlobBaseFeeScalar": "0xa118b",
      "l1Fee": "0x68",
      "l1GasPrice": "0x16",
      "l1GasUsed": "0x640"
    }
  ],
  "libraries": [],
  "pending": [],
  "returns": {},
  "timestamp": 1759672435283,
  "chain": 84532,
  "commit": "3d14419"
}