{
  "transactions": [
    {
      "hash": "0x5446e892d2f7b2fe5404fb3e1735e0c8deeb8af9ee768581bb7f74c40c070dd9",
      "transactionType": "CALL",
      "contractName": null,
      "contractAddress": "0xb5bf6682f2820097be86539b931bc78e2177fddc",
      "function": "transfer(address,uint256)",
      "arguments": [
        "0x54F5BDAcfD4834202E6A6e062601E277013e9e33",
        "10000000000000000000000"
      ],
      "transaction": {
        "from": "0xbbe4c705bda4e355822b067665dd0c7e83458595",
        "to": "0xb5bf6682f2820097be86539b931bc78e2177fddc",
        "gas": "0xd5e7",
        "value": "0x0",
        "input": "0xa9059cbb00000000000000000000000054f5bdacfd4834202e6a6e062601e277013e9e3300000000000000000000000000000000000000000000021e19e0c9bab2400000",
        "nonce": "0x27",
        "chainId": "0x14a34"
      },
      "additionalContracts": [],
      "isFixedGasLimit": false
    }
  ],
  "receipts": [
    {
      "status": "0x1",
      "cumulativeGasUsed": "0xb1c0e1",
      "logs": [
        {
          "address": "0xb5bf6682f2820097be86539b931bc78e2177fddc",
          "topics": [
            "0xddf252ad1be2c89b69c2b068fc378daa952ba7f163c4a11628f55a4df523b3ef",
            "0x000000000000000000000000bbe4c705bda4e355822b067665dd0c7e83458595",
            "0x00000000000000000000000054f5bdacfd4834202e6a6e062601e277013e9e33"
          ],
          "data": "0x00000000000000000000000000000000000000000000021e19e0c9bab2400000",
          "blockHash": "0x740ecbd92e688932ad6c1bf24fa339f9d0009738fcd82f19d7da91ead1227765",
          "blockNumber": "0x1e78d11",
          "blockTimestamp": "0x68e27902",
          "transactionHash": "0x5446e892d2f7b2fe5404fb3e1735e0c8deeb8af9ee768581bb7f74c40c070dd9",
          "transactionIndex": "0x17",
          "logIndex": "0x56",
          "removed": false
        }
      ],
      "logsBloom": "0x00000000000000000000000000000000000000000000000000000000000000000000000000000000000000000000000040000000000000000000000000000000000000004000000000000008000000000000000000000000000000000000000000000000000000020000000000000000000000000000000000000110000000000000000000000000000000000000000008000000000000000000000000000000002000040000000000000000000000000000000000000000000000000000000000000002100000000000000000000000010000000000000000000000000000000000000000000000000000000000000000000000000000000000000000000000",
      "type": "0x2",
      "transactionHash": "0x5446e892d2f7b2fe5404fb3e1735e0c8deeb8af9ee768581bb7f74c40c070dd9",
      "transactionIndex": "0x17",
      "blockHash": "0x740ecbd92e688932ad6c1bf24fa339f9d0009738fcd82f19d7da91ead1227765",
      "blockNumber": "0x1e78d11",
      "gasUsed": "0x9243",
      "effectiveGasPrice": "0x8787aad",
      "from": "0xbbe4c705bda4e355822b067665dd0c7e83458595",
      "to": "0xb5bf6682f2820097be86539b931bc78e2177fddc",
      "contractAddress": null,
      "l1BaseFeeScalar": "0x44d",
      "l1BlobBaseFee": "0x1",
      "l1BlobBaseFeeScalar": "0xa118b",
      "l1Fee": "0x63",
      "l1GasPrice": "0x13",
      "l1GasUsed": "0x640"
    }
  ],
  "libraries": [],
  "pending": [],
  "returns": {},
  "timestamp": 1759672578559,
  "chain": 84532,
  "commit": "3d14419"
}